:100000000A128A110E280134FE00030EF0000A08BD
:10001000F1007F08F2000A168A11FA2C0A128A11DE
:10002000112883179C30FD001D30FE00DC30FF00DE
:10003000903084000A168A153C260A128A1183130E
:10004000E630FD000730FE00F230FF00D9308400BA
:100050000A168A153C260A128A110A128A110320EE
:100060000A128A11E9000A128A11FF270A128A115C
:10007000FA00A0308400D9300A168A1596250A1293
:100080008A114E30840069300A168A1596250A12A4
:100090008A11F90183010A128A114E28831603136B
:1000A000EF01EF0A6308E8006408E9006508EA0068
:1000B000EB010A168A11FB220A128A11831203131A
:1000C000A401E8300A168A1195240A128A116330B5
:1000D000F6009130F70000300A168A15CF270A1271
:1000E0008A110A3083120313A0000030A1000A16FF
:1000F0008A1513260A128A11740883120313A300A7
:100100007308A2000A168A113E230A128A1183126A
:1001100003132008C600460883160313EC0064305E
:100120006C02031C942895289D28633083120313C6
:10013000C600460883160313EC0000300A168A1521
:100140004B270A128A1183120313C600460883162E
:100150000313EE003F306E060319AF28B028CD28F8
:100160001F306E060319B528B628CD280430831237
:10017000031367060319BD28BE28DA280130DC07FF
:100180000318DD0A0030DD07831603136E0883129F
:100190000313C6004608E800DA283F306E06031D48
:1001A000D228D328DA2883120313E7010030DC00B9
:1001B0000030DD003F30831603136E06031DE12877
:1001C000E228E8296F03031DE628E728E8293E30E6
:1001D000831203136806031DEE28EF2821296830D7
:1001E000F3009130F400E8300A168A1150220A1206
:1001F0008A11730874040319FE28FF282129683026
:10020000F3009130F400E8300A168A1524270A1208
:100210008A11831603136C0883120313C600460861
:10022000A400E8300A168A1195240A128A11831252
:100230000313DC01DD010310003003180130E80076
:10024000E8293D30831203136806031D2829292954
:1002500063290630831603136B02031830293129F2
:1002600063296B0883120313C6004607903E84007F
:1002700083170008F300840A00088403F400E830C0
:100280000A168A1524270A128A11013083120313D1
:10029000C600460883160313EB076C08831203138A
:1002A000C6004608A400E8300A168A1195240A12EE
:1002B0008A1183120313DC01DD01031000300318DF
:1002C0000130E800E8293B3083126806031D6929E4
:1002D0006A299F29831603136B0803197029712952
:1002E0009F290130EB026B0883120313C6004607F7
:1002F000903E840083170008F300840A00088403FA
:10030000F400E8300A168A1524270A128A11831687
:1003100003136C0883120313C6004608A400E830D8
:100320000A168A1195240A128A1183120313DC011A
:10033000DD010310003003180130E800E8293730F0
:10034000831268060319A529A629AC292F3068064F
:10035000031DAB29AC29E8290A168A1502260A12C0
:100360008A11CC3083120313A0009030A10080309A
:10037000C6004608A2000A168A11B5210A128A117F
:10038000C53083120313C6004608B60020300A1693
:100390008A1525260A128A11F3010F300A168A15CA
:1003A00099260A128A11A53083120313C600C60BC0
:1003B000D729DA29023083120313C60046088316B0
:1003C0000313EF00ED01ED0A831203131215172931
:1003D00083125D08803AFF0080307F02031DF229FE
:1003E0000E305C02031CF529F629B52B3730831239
:1003F00003136806031DFD29FE296C2B04308316A8
:1004000003136F06031D052A062A672A0430831288
:100410000313C6004608E7004A2A0830C60046080B
:1004200083160313EF00083083120313C600460837
:1004300083160313ED00622B1030C60046088316A6
:100440000313EF00043083120313C600460883161B
:100450000313ED00622B2030C600460883160313F9
:10046000EF00622B4030C600460883160313EF00EE
:10047000103083120313C600460883160313ED00E1
:10048000622B8030C600460883160313EF00ED018F
:10049000ED0A622B83160313660883120313C6004A
:1004A000C7014708003A0319562A622B4608003A4A
:1004B00003190D2A013A03191C2A033A03192B2A9E
:1004C000013A0319322A073A0319412A622B0830EC
:1004D0006F0603196C2A6D2A732A80306F06031D7C
:1004E000722A732A922A043083120313C600460824
:1004F00083160313EF00053083120313C60046086A
:1005000083160313ED00F3010C300A168A159926A1
:100510000A128A11A53083120313C600C60B8E2A55
:10052000912A622B40306F06031D972A982A622B6E
:10053000043083120313C600460883160313EF002A
:10054000053083120313C600460883160313ED001B
:100550000A30F3000030F400831203136608C6006B
:10056000C7014608F5004708F6000A168A11DB2382
:100570000A128A11730883120313C8007408C90091
:100580000A30F3000030F4006608CA00CB014A08C4
:10059000F5004B08F6000A168A11C9250A128A11BD
:1005A000730883120313CC0003300310CC0DFF3EFD
:1005B000031DD52A03104C0D4804CD004D08F8004A
:1005C00000300A168A15B9260A128A110A30F30079
:1005D0000030F400831203136508C600C701460803
:1005E000F5004708F6000A168A11DB230A128A1161
:1005F000730883120313C8007408C9000A30F3009B
:100600000030F4006508CA00CB014A08F5004B0829
:10061000F6000A168A11C9250A128A117308831274
:100620000313CC0003300310CC0DFF3E031D132B2E
:1006300003104C0D4804CD004D08F80001300A1697
:100640008A15B9260A128A110A30F3000030F40024
:10065000831203136408C600C7014608F500470863
:10066000F6000A168A11DB230A128A117308831214
:100670000313C8007408C9000A30F3000030F40006
:100680006408CA00CB014A08F5004B08F6000A16B8
:100690008A11C9250A128A11730883120313CC0028
:1006A00003300310CC0DFF3E031D512B03104C0DE6
:1006B0004804CD004D08F80002300A168A15B92604
:1006C0000A128A1183120313DC01DD0103100030CA
:1006D00003180130E800B52B2F306806031D712B7D
:1006E000722BB52B0430831603136F060319792B75
:1006F0007A2B8C2B08306F0603197F2B802B8C2BC9
:1007000040306F060319852B862B8C2B80306F06AB
:10071000031D8B2B8C2BB52B0A168A1502260A1269
:100720008A11043083120313C6004608E7008316BB
:100730000313EF01EF0A83120313DC01DD01031041
:10074000003003180130E800F3010C300A168A1556
:1007500099260A128A11A53083120313C600C60B0C
:10076000AF2BB22B83120313121104308312031325
:100770006706031DBC2BBD2B132DDC01DD0103100F
:10078000003003180130E800132D831603136C08A2
:1007900083120313C6004608B800E8300A168A110F
:1007A00036240A128A11392D0A168A1502260A12CF
:1007B0008A1183160313EF01EF0AF3010C300A16B6
:1007C0008A1599260A128A11A53083120313C600CE
:1007D000C60BE82BEB2B831203131211392D0430B7
:1007E000C600460883160313EF0005308312031377
:1007F000C600460883160313ED00F3010C300A16F9
:100800008A1599260A128A11A53083120313C6008D
:10081000C60B082C0B2C7128831603136E08831249
:100820000313C6004608B700831603136D080A12A7
:100830008A1140250A128A1183120313C700C801C6
:100840004808003A0319252C392D4708013A0319A5
:10085000EF2B023A0319D42B392D831603136E089C
:1008600083120313C6004608B700831603136D08EE
:100870000A128A15E8220A128A1183120313C7008A
:10088000470883160313E600831203135E085F0410
:10089000031D4B2C4C2C392D0A168A1502260A12E0
:1008A0008A1183160313EF01EF0AEB2B8316031350
:1008B0006E0883120313C6004608B900831603139B
:1008C0006D080A128A150A220A128A11831203136A
:1008D000C700470883160313E70022306706031D8D
:1008E000722C732C842C043083120313C600460828
:1008F00083160313EF00053083120313C600460866
:1009000083160313ED007128831203135E085F043E
:10091000031D8B2C8C2C392D4C2C831603136D0846
:100920000A168A1184220A128A11043083120313D0
:10093000C600460883160313EF0005308312031325
:10094000C600460883160313ED0071280A168A11A3
:1009500032260A128A11952C831603136E0883120D
:100960000313C6004608B700831603136D080A1266
:100970008A15E3250A128A11831203135E085F04A5
:10098000031DC32CC42C392D4C2C831603136E0865
:1009900083120313C6004608B700831603136D08BD
:1009A0000A128A15CD230A128A1183120313C70073
:1009B000470883160313E70011306706031DE12C77
:1009C000E22CFA2C043083120313C6004608831667
:1009D0000313EF00053083120313C6004608831685
:1009E0000313ED00F3010C300A168A1599260A123A
:1009F0008A11042C831203135E085F04031D012D6A
:100A0000022D392D0A168A1502260A128A1183161A
:100A10000313EF01EF0AF3010C300A168A15992629
:100A20000A128A11E42B831603136F08831203132F
:100A3000C600C7014708003A03191F2D392D460883
:100A4000013A0319C52B033A03190C2C063A031972
:100A50002D2C0C3A0319562C183A03198D2C303AC8
:100A60000319A62C603A0319AC2CC03A0319C52C03
:100A7000392D83160313ED0171280A128A110E28ED
:100A800083120313C3004303031D472D482D592D23
:100A9000E30183160313D501D601D701D801033032
:100AA00083120313B8003808E2000530DE0000307E
:100AB000DF005E085F04031D5E2D5F2D612D033096
:100AC0006A2F3F303706031D662D672DB82D37304E
:100AD0006806031D6C2D6D2D982D043063020318DC
:100AE000722D732D982D3130B8006308D53E8400E7
:100AF0003808831380006308C63EB8003808B60083
:100B00002A300A168A1525260A128A110130831204
:100B10000313B8003808E3070530DE000030DF00BB
:100B2000DC01DD010310003003180130E800B82DAE
:100B30002F306806031D9D2D9E2DB82D04306302B5
:100B40000318A32DA42DB82D3030B8006308D53E6E
:100B500084003808831380006308C63EB800380854
:100B6000B6002A300A168A1525260A128A11862D01
:100B700004306306031DBD2DBE2D6A2FC401C501BF
:100B80008312031344080A168A15A2270A128A112F
:100B900083120313B80044083B3E840038088313D3
:100BA00080000130C4070318C50A0030C507450896
:100BB000803AFF0080307F02031DE02D04304402A4
:100BC000031CE32DE42DC02DD53083120313B80090
:100BD0003808F3000430F4000030F5003B300A160A
:100BE0008A11BD220A128A1173087404031DF92D9B
:100BF000FA2DFC2D01306A2F0A168A1502260A12D8
:100C00008A11013083120313E2026208031D092EC8
:100C10000A2EF52E0A168A1502260A128A11ED30BE
:100C200083120313A0009030A1008030B800380870
:100C3000A2000A168A11B5210A128A110C308312F9
:100C40000313A0009130A100C030B8003808A20002
:100C50000A168A11B5210A128A11F3010C300A16FC
:100C60008A1599260A128A11A53083120313B80037
:100C7000B80B382E3B2E003083120313D100003006
:100C8000D0000330CF008430CE00E62ECD30B80047
:100C90003808B6000030AB000030AA000030A900D0
:100CA0006430A8005108AF005008AE004F08AD00F6
:100CB0004E08AC000A128A15BA200A128A11831251
:100CC00003132808303E0A168A1525260A128A11AF
:100CD000CE3083120313B8003808B6000030AB00E2
:100CE0000030AA000030A9000A30A8005108A7006F
:100CF0005008A6004F08A5004E08A4000030A3002D
:100D00000030A2000030A1006430A0000A128A1155
:100D10006B270A128A11831203132308AF002208DB
:100D2000AE002108AD002008AC000A128A15BA20D6
:100D30000A128A11831203132808303E0A168A15F4
:100D400025260A128A11831203135108A70050089E
:100D5000A6004F08A5004E08A4000030A3000030F4
:100D6000A2000030A1006430A0000A128A116B2793
:100D70000A128A11831203132308C2002208C10039
:100D80002108C0002008BF00CF30B8003808B600E6
:100D90000030A3000030A2000030A1000A30A00003
:100DA0004208A7004108A6004008A5003F08A4008B
:100DB0000A128A116B270A128A1183120313200860
:100DC000303E0A168A1525260A128A118312031349
:100DD000510850044F044E04031DEF2EF02E462EF2
:100DE0000330B8003808E200332F0A168A150226AD
:100DF0000A128A11DD3083120313A0009030A10083
:100E00008030B8003808A2000A168A11B5210A12EB
:100E10008A11C03083120313B8003808B600620884
:100E2000303E0A168A1525260A128A11FD308312D1
:100E30000313A0009030A100C230B8003808A2000F
:100E40000A168A11B5210A128A114D308312031332
:100E5000BA001930B9004F30B800B80B2D2FB90BBC
:100E60002D2FBA0B2D2F053083120313DE00003017
:100E7000DF000A168A1502260A128A11CC30831264
:100E80000313A0009030A1008030B8003808A20001
:100E90000A168A11B5210A128A11C530831203136A
:100EA000B8003808B60020300A168A1525260A121E
:100EB0008A11F3010F300A168A1599260A128A112F
:100EC000A53083120313B800B80B642F672F831269
:100ED0000313E3010800F50183120313A71F712F09
:100EE000722F7F2FA409A509A609A709A40A03192F
:100EF000A50A0319A60A0319A70AF501F50AA31FF3
:100F0000822F832F8E2FA009A109A209A309A00A6D
:100F10000319A10A0319A20A0319A30A2308220428
:100F2000210420040319952F962FD92FF401F40AD8
:100F3000A62F0130F3000310A00DA10DA20DA30DEB
:100F4000F30B9B2F0130F3007308F407A31FA92FA5
:100F5000AA2F992F23082702031DB82F2208260243
:100F6000031DB82F21082502031DB82F20082402D5
:100F7000031CBB2FBC2FCA2F2008A4022108031C6E
:100F8000210FA5022208031C220FA6022308031C1E
:100F9000230FA70201300310A30CA20CA10CA00C7C
:100FA000FF3E031DCB2F0130F402031DD82FD92F94
:100FB000AA2F75080319DD2FDE2FE92FA409A50933
:100FC000A609A709A40A0319A50A0319A60A031961
:100FD000A70A2708A3002608A2002508A1002408C4
:100FE000A00008005A3491343534913428349134B7
:100FF000513491341A3491344F344E340034FF3428
:10100000F7007708F6007608F8001F280130F40290
:101010000030031CF503F502730884000130F30768
:1010200083130008F600780884000130F80776087A
:1010300080000008031D1D281E281F282E28740864
:101040007504031D2428252806282E2878088400E6
:10105000831380010130F6007608F8070130F402AE
:101060000030031CF503F502740A031D3B28750AC2
:10107000031D3B283C2826280800F40074082F3E56
:101080000A168A15C6250A128A1520300A168A15EC
:10109000C6250A128A158316031320080A168A1514
:1010A000C6250A128A158316031321080A168A1503
:1010B000C6250A128A153A300A168A15C6250A125A
:1010C0008A158316031322080A168A15C6250A12E2
:1010D0008A158316031323080A168A15C6250A12D1
:1010E0008A153A300A168A15C6250A128A158316F9
:1010F000031324080A168A15C6250A128A158316B0
:10110000031325080A168A15C6250A128A152030E7
:101110000A168A15C6250A128A158316031327088C
:101120000A168A15C6250A128A158316031328087B
:101130000A168A15C6250A128A1520300A168A153B
:10114000C6250A128A15831603132A080A168A1559
:10115000C6250A128A15831603132B080A168A1548
:10116000C6250A128A150A300A168A15C6250A12D9
:101170008A15080083120313B101AB1FC028C128D0
:10118000CE28A809A909AA09AB09A80A0319A90A1E
:101190000319AA0A0319AB0AB101B10AAF1FD1287A
:1011A000D228E128AC09AD09AE09AF09AC0A031990
:1011B000AD0A0319AE0A0319AF0A0130F60076082A
:1011C000B1060030B5000030B4000030B30000308C
:1011D000B2002B082A04290428040319F028F12856
:1011E0003E29B001B00A01290130F6000310A80D14
:1011F000A90DAA0DAB0DF60BF6280130F600760806
:10120000B007AB1F04290529F4280130F6000310AC
:10121000B20DB30DB40DB50DF60B07292B082F0237
:10122000031D1C292A082E02031D1C2929082D0232
:10123000031D1C2928082C02031C1F2920292F29E3
:101240002808AC022908031C290FAD022A08031C38
:101250002A0FAE022B08031C2B0FAF0232140130F1
:101260000310AB0CAA0CA90CA80CFF3E031D3029DF
:101270000130B002031D3D293E290529310803191B
:10128000422943294E29B209B309B409B509B20A62
:101290000319B30A0319B40A0319B50A3508AB00D8
:1012A0003408AA003308A9003208A80008008312F5
:1012B0000313B800C030B7003708B60038082F3E17
:1012C0000A168A1525260A128A15C23083120313BC
:1012D000B7003708B6008316031320080A168A15CC
:1012E00025260A128A15C33083120313B700370864
:1012F000B6008316031321080A168A1525260A123A
:101300008A15C43083120313B7003708B6003A3089
:101310000A168A1525260A128A15C5308312031368
:10132000B7003708B6008316031322080A168A1579
:1013300025260A128A15C63083120313B700370810
:10134000B6008316031323080A168A1525260A12E7
:101350008A15C73083120313B7003708B6003A3036
:101360000A168A1525260A128A15C8308312031315
:10137000B7003708B6008316031324080A168A1527
:1013800025260A128A15C93083120313B7003708BD
:10139000B6008316031325080A168A1525260A1295
:1013A0008A15CB3083120313B7003708B6008316B3
:1013B000031327080A168A1525260A128A15CC3027
:1013C00083120313B7003708B600831603132808E7
:1013D0000A168A1525260A128A15CE30831203139F
:1013E000B7003708B600831603132A080A168A15B1
:1013F00025260A128A15CF3083120313B700370847
:10140000B600831603132B080A168A1525260A121E
:101410008A15080083120313BD0008303D06031D22
:10142000122A132A402A0A168A1502260A128A1537
:10143000053083120313DE000030DF007908031942
:10144000222A232A402AAA30A0009030A10080300E
:10145000BA003A08A2000A168A11B5210A128A15A2
:1014600083120313E001E00A01300A168A111027E3
:101470000A128A1501300A128A1557210A128A1592
:1014800079080319442A452AAA2A3F3083120313F4
:101490003906031D4C2A4D2AD82A5D08803AFF00E0
:1014A00080307F02031D562A0D305C020318592A32
:1014B0005A2AD82A3730831203136806031D612A7B
:1014C000622A882A0130E002031D672A682A6C2AF2
:1014D0007908BA003A08E00060080A168A11102755
:1014E0000A128A158312031360080A128A155721FB
:1014F0000A128A1583120313DC01DD010310003088
:1015000003180130E8000530DE000030DF00D82A83
:101510002F306806031D8D2A8E2AA92A0130BA00B1
:101520003A08E007600879020318972A982A9A2A4D
:10153000E001E00A60080A168A1110270A128A15CB
:101540008312031360080A128A1557210A128A159A
:101550007A2AD82A003083120313A0009030A10009
:101560008030BA003A08A2000A168A11B5210A1280
:101570008A15443083120313A0009030A100C030BC
:10158000BA003A08A2000A168A11B5210A128A1571
:101590004D3083120313BC001930BB004F30BA002A
:1015A000BA0BD02ABB0BD02ABC0BD02A2230E72A98
:1015B000033083120313BC000E30BB00F530BA00B9
:1015C000BA0BE02ABB0BE02ABC0BE02A1130080062
:1015D00083120313BB0005303B06031DF02AF12ADA
:1015E000042B0A168A1502260A128A150530831260
:1015F0000313DE000030DF00E101DC01DD01031038
:10160000003003180130E8003F303706031D092B76
:101610000A2B4A2B5D08803AFF0080307F02031DB1
:10162000132B0D305C020318162B172B4A2B2F306F
:10163000831203136806031D1E2B1F2B3C2B043043
:1016400061020318242B252B322B0130B8003808F7
:10165000E1070530DE000030DF000A168A15022699
:101660000A128A1583120313DC01DD010310003016
:1016700003180130E8004A2B37306806031D412B60
:10168000422B4A2B61080319462B472B322B013082
:10169000E102292B04308312031361020318512B3A
:1016A000522B8B2B8030B8003808B6002A300A162F
:1016B0008A1525260A128A15831203136108B800B9
:1016C0003807D93E840083130008A000840A00086C
:1016D0008403A1008230BA003A08A2000A168A11D7
:1016E000B5210A128A15831203136108B80038075E
:1016F000DB3E840083130008A000840A00088403F2
:10170000A100C230BA003A08A2000A168A11B52117
:101710000A128A15C92B04306106031D902B912BE8
:10172000C92BC030B8003808B6002A300A168A150E
:1017300025260A128A15831203136108B800380798
:10174000D73E840083130008A000840A00088403A5
:10175000A1008230BA003A08A2000A168A11B52107
:101760000A128A15831203136108B8003807D93E9C
:10177000840083130008A000840A00088403A100E9
:10178000C230BA003A08A2000A168A11B5210A121C
:101790008A15831203136108080083120313BB0028
:1017A0003B03031DD42BD52B172C0A168A150226B2
:1017B0000A128A15053083120313DE000030DF00A1
:1017C000CC30A0009030A1008030B8003808A200D2
:1017D0000A168A11B5210A128A15C530831203131D
:1017E000B8003808B60020300A168A1525260A12D5
:1017F0008A15F3010F300A168A1599260A128A15DE
:10180000A53083120313B800B80B042C072C8312E5
:101810000313D201D301D401D50183160313D101DF
:10182000D201D301D401CD01CE01CF01D0013F308F
:1018300083123706031D1D2C1E2CCD2C5D08803A0B
:10184000FF0080307F02031D272C0D305C0203183F
:101850002A2C2B2CCD2C3730831203136806031D42
:10186000322C332C8E2C5508803AFF0080307F02BA
:10187000031D3C2C0430540203183F2C402C652CD3
:10188000313083120313B8005408D13E8400380865
:10189000831380005408C63EB8003808B6002A30CA
:1018A0000A168A1525260A128A1501308312031397
:1018B000D4070318D50A0030D507DC01DD01031079
:1018C000003003180130E800822C313083120313FA
:1018D000B8005208CD3E84003808831380005208B7
:1018E000C63EB8003808B6002A300A168A152526E2
:1018F0000A128A15013083120313D2070318D30A80
:101900000030D3070530DE000030DF00DC01DD01F0
:101910000310003003180130E800CD2C2F3068068A
:10192000031D932C942CCD2C5508803AFF00803059
:101930007F02031D9D2C043054020318A02CA12CFF
:10194000B72C303083120313B8005408D13E840002
:101950003808831380005408C63EB8003808B60023
:101960002A300A168A1525260A128A15552C303077
:1019700083120313B8005208CD3E84003808831345
:1019800080005208C63EB8003808B6002A300A1651
:101990008A1525260A128A157A2C0430831203131D
:1019A00054065504031DD52CD62CFD2C0130D4072C
:1019B0000318D50A0030D5070A168A1502260A121E
:1019C0008A153F3083120313A0009130A1008430A8
:1019D000B8003808A2000A168A11B5210A128A1521
:1019E000C53083120313B8003808B60020300A1639
:1019F0008A1525260A128A15D42D0430520653045E
:101A0000031D032D042DD42DCD30B8003808F3006C
:101A10000430F4000030F500D1300A168A11BD22DE
:101A20000A128A1573087404031D172D182D742DBE
:101A30000A168A1502260A128A1583120313BC019C
:101A4000BD01831203133C08D13E840083130008B8
:101A5000B8003808F4003C080A168A157B260A12DA
:101A60008A15013083120313BC070318BD0A003026
:101A7000BD073D08803AFF0080307F02031D422DE4
:101A800004303C02031C452D462D212D6630831267
:101A90000313A0009030A1008030B8003808A200E5
:101AA0000A168A11B5210A128A15223083120313ED
:101AB000A0009030A100C030B8003808A2000A167B
:101AC0008A11B5210A128A154D3083120313BA0008
:101AD0001930B9004F30B800B80B6C2DB90B6C2D14
:101AE000BA0B6C2D1130E22D83120313D201D301F6
:101AF000D401D5015530A0009030A1008030B8004D
:101B00003808A2000A168A11B5210A128A158830EF
:101B100083120313A0009030A100C030B800380831
:101B2000A2000A168A11B5210A128A154D308312B5
:101B30000313BA001930B9004F30B800B80B9E2D0E
:101B4000B90B9E2DBA0B9E2D0A168A1502260A1273
:101B50008A15CC3083120313A0009030A10080308E
:101B6000B8003808A2000A168A11B5210A128A158F
:101B7000C53083120313B8003808B60020300A16A7
:101B80008A1525260A128A1583160313D101D2015C
:101B9000D301D401CD01CE01CF01D0010530831294
:101BA0000313DE000030DF00033083120313BA009A
:101BB0000E30B900F530B800B80BDC2DB90BDC2DB8
:101BC000BA0BDC2D080083120313BB0010303B0658
:101BD000031DEB2DEC2D642E0A168A1502260A121F
:101BE0008A15053083120313DE000030DF00D601B2
:101BF000D70183160313B201B301483083120313D4
:101C0000A0009130A1008430B8003808A2000A1664
:101C10008A11B5210A128A150A168A1183270A1217
:101C20008A15C630F3000030F400BF300A168A155A
:101C300024270A128A150A3083120313B8003808C1
:101C4000F3008316031343080A168A154B260A125B
:101C50008A15831603134407F03E83120313B90059
:101C60003908E6000A30B8003808F3008316031379
:101C700041080A168A154B260A128A158316031381
:101C80004207F03E83120313B9003908E5000A3019
:101C9000B8003808F300831603133F080A168A15A4
:101CA0004B260A128A15831603134007F03E83124F
:101CB0000313B9003908E4000230DA000030DB0019
:101CC0000A30D8000030D9003F303706031D692E96
:101CD0006A2EF12E5D08803AFF0080307F02031DDE
:101CE000732E0D305C020318762E772EF12E3730CE
:101CF000831203136806031D7E2E7F2EBB2E023037
:101D00005A065B04031D852E862E922E0130B800E4
:101D10003808E6073C306602031C8F2E902EAF2E4B
:101D2000E601AF2E5A035B04031D972E982EA42EB6
:101D30000130B8003808E5073C306502031CA12ECD
:101D4000A22EAF2EE501AF2E0130B8003808E4070F
:101D500018306402031CAD2EAE2EAF2EE401053008
:101D6000DE000030DF00DC01DD010310003003186D
:101D70000130E800F12E2F306806031DC02EC12E61
:101D8000F12EFF30DA070318DB0AFF30DB07DB1F19
:101D9000CA2ECB2ECF2E0230DA000030DB0002300C
:101DA0005A065B04031DD52ED62EDB2E0A30D80032
:101DB0000030D900AF2E5A035B04031DE02EE12E44
:101DC000E62E0730D8000030D900AF2E5A085B0449
:101DD000031DEB2EEC2EAF2E0430D8000030D900BE
:101DE000AF2E013083160313B2070318B30A003075
:101DF000B3073308803AFF0080307F02031D022FB3
:101E00000B303202031C052F062F1A2F83120313E7
:101E10005608570403190D2F0F2F0130102F0030D3
:101E2000B800B9013808D6003908D7008316031363
:101E3000B201B3018312031356085704031D212F67
:101E4000222FE72FC430B8003808B6000A30F3005C
:101E50000030F4006408B900BA013908F5003A0806
:101E6000F6000A168A11C9250A128A157308303E2F
:101E70000A168A1525260A128A15C53083120313FD
:101E8000B8003808B6000A30F3000030F4006408E7
:101E9000B900BA013908F5003A08F6000A168A11A5
:101EA000DB230A128A157308303E0A168A15252686
:101EB0000A128A15C63083120313B8003808B60018
:101EC0003A300A168A1525260A128A15C730831257
:101ED0000313B8003808B6000A30F3000030F400ED
:101EE0006508B900BA013908F5003A08F6000A1683
:101EF0008A11C9250A128A157308303E0A168A15F6
:101F000025260A128A15C83083120313B800380830
:101F1000B6000A30F3000030F4006508B900BA01D9
:101F20003908F5003A08F6000A168A11DB230A126E
:101F30008A157308303E0A168A1525260A128A1554
:101F4000C93083120313B8003808B6003A300A16B5
:101F50008A1525260A128A15CA3083120313B8007F
:101F60003808B6000A30F3000030F4006608B90003
:101F7000BA013908F5003A08F6000A168A11C9258F
:101F80000A128A157308303E0A168A1525260A1287
:101F90008A15CB3083120313B8003808B6000A3014
:101FA000F3000030F4006608B900BA013908F50002
:101FB0003A08F6000A168A11DB230A128A157308FA
:101FC000303E0A168A1525260A128A15FF2F580850
:101FD000C03EB8003808B600FF300A168A1525261C
:101FE0000A128A15831203135808C13EB800380834
:101FF000B600FF300A168A1525260A128A1508002F
:10200000203420342034203420344E344F342034D3
:102010004C344F344734533420342034203420346B
:1020200000342034203420342034203449344E34D9
:102030002034553441345234543420342034203444
:102040002034003420342034533455344334433462
:10205000453453345334463455344C344C34593469
:1020600020342034003420344C344F34473453343B
:10207000203444344934533450344C34413459348A
:102080004534443420340034203420344134523434
:102090004534203441345634413449344C3441348D
:1020A00042344C34453420340034503441345334B9
:1020B000533457344F345234443420344434493444
:1020C00044344E34273454342034003450344134B2
:1020D0005334533457344F3452344434203443341B
:1020E000483441344E3447344534443400344C345D
:1020F0004F3447345334203441345234453420343F
:1021000043344C344534413452344534443400343F
:102110004D3441345434433448342C342034543412
:1021200052345934203441344734413449344E34E4
:10213000003420342034543449344D344534203470
:102140002034203420344534563420342034533461
:1021500050340034203420342034543449344D3445
:10216000453420342034203420344534563420344F
:1021700053345034003455344134523454342034C0
:102180005434653473347434203443346F346434D9
:1021900065340A340D340034203445344E3454341C
:1021A000453452342034503441345334533457344A
:1021B0004F345234443420340034203457345234B1
:1021C0004F344E3447342034503441345334533434
:1021D00057344F3452344434003459346F347534E6
:1021E0002034613472346534203462346C346F349A
:1021F00063346B346534643400346134743474345F
:1022000065346D34703474342034723465346D3414
:10221000613469346E34003466346F34723420347F
:1022200039343034303420347334653463342E34EC
:102230002E3400344334683461346E34673465348A
:10224000203470346134733473347734643400343C
:1022500044346F3477346E346C346F3461346434A6
:1022600020346C346F346734003443346C34653458
:102270006134723420346C346F3467340034523437
:1022800045342D3445344E345434453452340034BE
:102290004834483420344D344D342034533453348E
:1022A00000345334653474342034743469346D34F8
:1022B00065340034563469346534773420346C34F2
:1022C0006F346734003431343034313430340034D6
:1022D000433420340034473431340034473432340A
:1022E0000034473433340034473434340034473412
:1022F0004E34003447345234003483160313060836
:102300003F38860008008312031398171816280810
:10231000AC002908AD002A08AE002B08AF0004303D
:102320000310AC0DAD0DAE0DAF0DFF3E031D90299A
:102330002F08A3002E08A2002D08A1002C08A00041
:102340000130A7003130A6002D30A5000030A400D8
:102350000A168A1161250A168A11831203132008AE
:10236000FF3E8316031399000800F3018312031341
:1023700022080A168A1599260A168A11D729F30106
:10238000F30A2108FF00200884000A168A1500209D
:102390000A168A110A168A1599260A168A11013018
:1023A00083120313A0070318A10A0030A1078312A8
:1023B00003132108FF00200884000A168A15002054
:1023C0000A168A11003A031DE629E729BF290800E9
:1023D0008312031394152808AC002908AD002A08BD
:1023E000AE002B08AF0002300310AC0DAD0DAE0DEA
:1023F000AF0DFF3E031DF4292F08A3002E08A200F5
:102400002D08A1002C08A0000130A7003130A60043
:102410002D30A5000030A4000A168A1161250A1685
:102420008A11831203132008FF3E831603139300BF
:102430008312031394160800013083120313A100C2
:102440002108FA070A307A06031D272A282A292A92
:10245000FA010A30A1002108F3007A080A168A1549
:102460004B260A168A11053E83120313A200220886
:10247000A300B430F6000030F70023080A168A15CE
:10248000CF270A168A110A3079020318482A492AE6
:102490004F2A013083120313A1002108F907080015
:1024A00083120313A1005E2A0130F5007508A1070D
:1024B0000130F3070318F40A0030F4077408FF0032
:1024C000730884000A168A1500200A168A11F5007E
:1024D0002108840083130008F60075087602F700CF
:1024E0007708A0002008031D762A772A7E2A210873
:1024F00084000008031D7D2A7E2A542A2008F30048
:10250000F401F31BF4030800F70004307706031D01
:102510008A2A8B2ABC2AF901FF3083120313A300F5
:102520002308FA007730A0009030A1008030A3008B
:102530002308A2000A168A11B5210A168A11223030
:1025400083120313A0009030A100C030A300230821
:10255000A2000A168A11B5210A168A114D3083127B
:102560000313A5001930A4004F30A300A30BB62A13
:10257000A40BB62AA50BB62A0800F800EA2A7808A8
:102580008400831300080319C62AC72AD32A7308B4
:1025900084000008F6007808840000087606031915
:1025A000D22AD32AE22A730884000008F6007808A9
:1025B00084000008F70076087702F300F401031C9A
:1025C000F403FA2A0130F6007608F8070130F60025
:1025D0007608F3070130F4020030031CF503F5021E
:1025E000740A031DF72A750A031DF72AF82ABF2A61
:1025F000F301F40108000A168A15D1250A168A117A
:102600000A168A158F250A168A110A168A117D2143
:102610000A168A11003083120313AB000130AA009E
:102620008630A900A030A8000A168A11E8210A16EF
:102630008A110A168A1560260A168A110A168A1540
:10264000F5250A168A11003083120313AB000030FF
:10265000AA002530A9008030A8000A168A1183211B
:102660000A168A11BB30F4009030F5000A168A155C
:10267000FE260A168A110B178B1708008312031304
:10268000A501A601200821040319472B482B7F2B05
:10269000A401A40A562B01300310A00DA10DFF3E8A
:1026A000031D4C2B0130F7007708A407A11F592BFD
:1026B0005A2B4B2B01300310A50DA60DFF3E031D19
:1026C0005B2B21082302031D672B20082202031C19
:1026D0006A2B6B2B722B2008A2022108031CA30378
:1026E000A302251401300310A10CA00CFF3E031D12
:1026F000732B0130A402031D7E2B7F2B5A2B26083F
:10270000A1002508A0000800C330F800CD30F70074
:10271000F70B882BF80B882BF30133300A168A1538
:1027200099260A168A111B30F8009E30F700F70B25
:10273000972BF80B972B0000F30133300A168A15FC
:1027400099260A168A11A630F700F70BA52B000070
:10275000F30133300A168A1599260A168A11B02B0E
:10276000B12B0000F30138300A168A1599260A1693
:102770008A11A630F700F70BBB2B0000F3010130E4
:102780000A168A1599260A168A110430F8003D3077
:10279000F700F70BC92BF80BC92BCE2BF3010C302C
:1027A0000A168A1599260A168A11A630F700F70B21
:1027B000D72B0000080083120313A101F61FE12BA1
:1027C000E22BE92BF509F609F50A0319F60AA1012E
:1027D000A10AF41FEC2BED2BF22BF309F409F30AF9
:1027E0000319F40A730874040319F72BF82B272C28
:1027F000A001A00A062C01300310F30DF40DFF3EDA
:10280000031DFC2B0130F7007708A007F41F092CEB
:102810000A2CFB2B74087602031D102C730875021A
:10282000031C132C142C1A2C7308F5027408031CB7
:10283000F603F60201300310F40CF30CFF3E031D07
:102840001B2C0130A002031D262C272C0A2C21084A
:1028500003192B2C2C2C312CF509F609F50A031938
:10286000F60A7608F4007508F300080083120313D3
:10287000BC009930A0009030A1008030B900390828
:10288000A2000A168A11B5210A168A110A168A119F
:102890009E260A168A11831203133C08A0000030FA
:1028A000A100CA30B9003908A2000A168A11B52160
:1028B0000A168A11CE3083120313B9003908B60004
:1028C0000A30F3000030F4003808BA00BB013A08BF
:1028D000F5003B08F6000A168A11C9250A168A1166
:1028E0007308303E0A168A1525260A168A11CF303B
:1028F00083120313B9003908B6000A30F300003020
:10290000F4003808BA00BB013A08F5003B08F600AD
:102910000A168A11DB230A168A117308303E0A163A
:102920008A1525260A168A11080083120313A800A7
:102930000A168A1183270A168A11C63083120313D6
:10294000A5002508F3000630F4000030F500B4308F
:102950000A128A1500200A168A1183120313280806
:10296000A5002508F3000230F4000030F500BA306D
:102970000A128A1500200A168A110A30F300003064
:10298000F400831203132408A500A6012508F5000E
:102990002608F6000A168A11C9250A168A11730834
:1029A000303E83120313A700270883160313BC00CD
:1029B0000A30F3000030F400831203132408A5004A
:1029C000A6012508F5002608F6000A168A11DB2361
:1029D0000A168A117308303E83120313A7002708D2
:1029E00083160313BD00BE010A168A111C220A16A3
:1029F0008A110800831203138C1CFF2C002D582D04
:102A0000013083160313B0070318B10A0030B10771
:102A1000E2303006043003193106031D102D112D4C
:102A2000552DB001B10183120313D11B272D51087D
:102A3000031D282D5008031D282D4F08031D282D88
:102A400001304E02031D242D031C272D282D362D69
:102A5000FF3083120313CE07FF30031CCF07FF3074
:102A6000031CD007FF30031CD107552D831203131D
:102A7000510850044F044E04031D3F2D402D552D89
:102A80005F08803AFF0080307F02031D492D01302E
:102A90005E02031C4C2D4D2D552DFF308312031368
:102AA000DE070318DF0AFF30DF07831203138C10E1
:102AB0007208FF0071088A00700E8300FE0E7E0E01
:102AC00009000030F7000030F6000030F50000305B
:102AD000F4008312031323082204210420040319A1
:102AE000722D732DC02DF801F80A832D0130F300EB
:102AF0000310A00DA10DA20DA30DF30B782D013035
:102B0000F3007308F807A31F862D872D762D01305B
:102B1000F3000310F40DF50DF60DF70DF30B892DF1
:102B200023082702031D9E2D22082602031D9E2D29
:102B300021082502031D9E2D20082402031CA12D1F
:102B4000A22DB12D2008A4022108031C210FA502EB
:102B50002208031C220FA6022308031C230FA7022E
:102B6000741401300310A30CA20CA10CA00CFF3EA6
:102B7000031DB22D0130F802031DBF2DC02D872D7E
:102B80007708A3007608A2007508A1007408A000C9
:102B9000080083120313A101F41FCF2DD02DD72DD0
:102BA000F309F409F30A0319F40AA101A10AF61FB3
:102BB000DA2DDB2DE42DF509F609F50A0319F60ADD
:102BC0000130F7007708A106A201A301730874047D
:102BD0000319EB2DEC2D232EA001A00AFA2D0130B4
:102BE0000310F30DF40DFF3E031DF02D0130F7002F
:102BF0007708A007F41FFD2DFE2DEF2D01300310E7
:102C0000A20DA30DFF3E031DFF2D74087602031DC8
:102C10000B2E73087502031C0E2E0F2E162E730832
:102C2000F5027408031CF603F602221401300310A7
:102C3000F40CF30CFF3E031D172E0130A002031D00
:102C4000222E232EFE2D21080319272E282E2D2E6D
:102C5000A209A309A20A0319A30A2308F40022085F
:102C6000F300080083120313A801A80A79080319C6
:102C70003A2E3B2E732E502E28080A168A11102742
:102C80000A168A118312031328080A128A153D2096
:102C90000A168A11013083120313A5002508A8071C
:102CA000280879020318552E562E3C2E3330A000EA
:102CB0009030A1008030A5002508A2000A168A11D4
:102CC000B5210A168A11113083120313A000903027
:102CD000A100C030A5002508A2000A168A11B5215E
:102CE0000A168A118F2E0030A0009030A10080308B
:102CF000A5002508A2000A168A11B5210A168A1114
:102D0000443083120313A0009030A100C030A5000E
:102D10002508A2000A168A11B5210A168A114D301B
:102D200083120313A7001930A6004F30A500A50B8E
:102D3000972EA60B972EA70B972E08000A168A111E
:102D400083270A168A11C03083120313B70037088D
:102D5000B6008316031346080A168A1525260A1696
:102D60008A11C13083120313B7003708B6008316E7
:102D7000031347080A168A1525260A168A11C23037
:102D800083120313B7003708B6003A300A168A15C3
:102D900025260A168A11C33083120313B700370899
:102DA000B6008316031348080A168A1525260A1644
:102DB0008A11C43083120313B7003708B600831694
:102DC000031349080A168A1525260A168A11C530E2
:102DD00083120313B7003708B6003A300A168A1573
:102DE00025260A168A11C63083120313B700370846
:102DF000B600831603134A080A168A1525260A16F2
:102E00008A11C73083120313B7003708B600831640
:102E100003134B080A168A1525260A168A1108007C
:102E200083120313A2000A30A0002008F300220836
:102E30000A168A154B260A168A11FB3E83120313C3
:102E4000A1002108A300A401240823070A168A155B
:102E5000A2270A168A1183120313A0002408A03E99
:102E600084002008831380000130A0002008A407FC
:102E700006302402031C3D2F3E2F242F2408A03EA1
:102E8000840080012308063E0A168A15A2270A1626
:102E90008A1183120313A000200883160313A700CE
:102EA000831203132308073E0A168A15A2270A165F
:102EB0008A1183120313A000200883160313A800AD
:102EC000A901831203132308083E0A168A15A227B4
:102ED0000A168A1183120313A00020088316031315
:102EE000AA00831203132308093E0A168A15A22793
:102EF0000A168A1183120313A000200883160313F5
:102F0000AB00AC01080002300A168A1575270A16B4
:102F10008A1183120313A000200883160313AD0047
:102F200001300A168A1575270A168A1183120313AF
:102F3000A000200883160313AE0000300A168A157D
:102F400075270A168A1183120313A000200883161E
:102F50000313AF002D0883120313A00004300310E5
:102F6000A00CFF3E031DAF2F20080339303EA10007
:102F7000210883160313C6002D080F39303E831233
:102F80000313A000200883160313C7002E08831222
:102F90000313A00004300310A00CFF3E031DCB2F31
:102FA00020080739303EA100210883160313C8000A
:102FB0002E080F39303E83120313A0002008831619
:102FC0000313C9002F0883120313A0000430031059
:102FD000A00CFF3E031DE72F20080739303EA1005B
:102FE000210883160313CA002F080F39303E8312BD
:102FF0000313A000200883160313CB00CC010800A4
:10300000FF1B0A2883137F1883170008840A0319FB
:10301000FF0A08007F087F398A000408840A031920
:04302000FF0A820021
:103B1E00831603139F17831203131F1408006400E8
:103B2E008001840A0406031900340406972D0A1630
:103B3E008A15E8250A168A15831603131114080030
:103B4E000A168A15E8250A168A1583160313111507
:103B5E000800F3000A168A15E8250A168A15730856
:103B6E0083120313930008000A168A15A7250A1656
:103B7E008A150A168A159E250A168A150800F3005C
:103B8E0073088312031399000C1ECE2DCF2DCB2D4F
:103B9E000C120800831603138801091189100A16E6
:103BAE008A1184230A168A150800773491347A34E0
:103BBE0091346B3491346E34913471349134743455
:103BCE009134831603131419ED2DEE2DE82D1108E3
:103BDE001F39031DF32DF42DE82D08008312031356
:103BEE0012149214FA308316031392008C1483125B
:103BFE00031312110800F30101300A168A159926D3
:103C0E000A168A150430F8003D30F700F70B0D2E1A
:103C1E00F80B0D2E122E0800831203131F151F19F9
:103C2E00192E1A2E162E1E08F600831603131E08C2
:103C3E00F5007608F4007508F3000800F800F301AB
:103C4E008312031336080A168A1599260A168A1540
:103C5E00F301F30A78080A168A1599260A168A15A8
:103C6E0008007E088A007F0882000A168A15382608
:103C7E000A168A158000840A04087D06031900348A
:103C8E00FF0A0319FE0A3C2EF600F501761C502E93
:103C9E00512E552E7308F4007408F5070310F30D1A
:103CAE000310F60C7608031D5D2E5E2E4D2E750844
:103CBE00080000300A168A1575270A168A1583120F
:103CCE000313A5002508A60026087F39A5002508A0
:103CDE00A6002608A5002508F80000300A168A1549
:103CEE00B9260A168A150800F5000A168A159E25A9
:103CFE000A168A15A0300A168A15B0250A168A15D4
:103D0E0075080A168A15B0250A168A1574080A1639
:103D1E008A15B0250A168A150A168A15A7250A16B7
:103D2E008A150800F60073189D2EA12E8312031318
:103D3E000915A42E8312031309117608880089141D
:103D4E00A630F400F40BA92E000083120313891081
:103D5E001B30F5009E30F400F40BB32EF50BB32E92
:103D6E000000080083120313A4000A168A159E256C
:103D7E000A168A15D0300A168A15B0250A168A1523
:103D8E008312031324080A168A15B0250A168A15FB
:103D9E0078080A168A15B0250A168A150A168A1583
:103DAE00A7250A168A150800F4000A168A15E825B2
:103DBE000A168A158316031391150A168A15E82515
:103DCE000A168A15831203131308F3007308F500FD
:103DDE007403031DF32EF42EF82E8316031391167F
:103DEE00FB2E831603139112111675080800132F5C
:103DFE007508FF00740884000A168A1500200A163A
:103E0E008A150A168A15C6250A168A150130F40770
:103E1E000318F50A0030F507750883120313FF0027
:103E2E00740884000A168A1500200A168A15003AAC
:103E3E00031D222F232FFF2E0800F7007708F50011
:103E4E007508F600342F0130F5007508F6070130BD
:103E5E00F3070318F40A0030F407740883120313EF
:103E6E00FF00730884000A168A1500200A168A15A8
:103E7E00F500760884007508831380000008031D82
:103E8E00492F4A2F2A2F0800F4007408031D502FC3
:103E9E00512F562F8312031306083F39742F3F30CC
:103EAE00831203130605F3003F3073060319602FC8
:103EBE00612F682F69080319652F662F682FE90196
:103ECE00512F3F300605F3003F307306031D702F50
:103EDE00712F732FE901E90A3F300800F7000A1627
:103EEE008A159E250A168A15D0300A168A15B0250F
:103EFE000A168A1577080A168A15B0250A168A1523
:103F0E000A168A15BB250A168A15D1300A168A1585
:103F1E00B0250A168A1500300A168A15DB260A16EF
:103F2E008A15F6007608F8000A168A15A7250A16CD
:103F3E008A1578080800F7000A168A159E250A16B3
:103F4E008A15A0300A168A15B0250A168A15770822
:103F5E000A168A15B0250A168A150A168A15BB2561
:103F6E000A168A15A1300A168A15B0250A168A1560
:103F7E0000300A168A15DB260A168A15F600760810
:103F8E00F8000A168A15A7250A168A157808080059
:103F9E0083120313A000F12F7708FF007608840028
:103FAE000A168A1500200A168A15F8007808F400F9
:103FBE0020080A168A157B260A168A150130F80083
:103FCE00780883120313A0070130F6070318F70AC7
:103FDE000030F7077708FF00760884000A168A1566
:103FEE0000200A168A15003A031DFE2FFF2FD32F2D
:0A3FFE000800FF3FFF3FFF3FFF3FB9
:02400E00FB3F76
:00000001FF
